{"contracts/Will.sol":{"Will":{"abi":[{"anonymous":false,"inputs":[{"indexed":false,"internalType":"address","name":"wallet","type":"address"},{"indexed":false,"internalType":"string","name":"asset","type":"string"},{"indexed":false,"internalType":"string","name":"message","type":"string"}],"name":"BeneficiaryAdded","type":"event"},{"anonymous":false,"inputs":[{"indexed":false,"internalType":"string","name":"newMessage","type":"string"}],"name":"WillUpdated","type":"event"},{"inputs":[{"internalType":"address","name":"_wallet","type":"address"},{"internalType":"string","name":"_asset","type":"string"},{"internalType":"string","name":"_message","type":"string"}],"name":"addBeneficiary","outputs":[],"stateMutability":"nonpayable","type":"function"},{"inputs":[{"internalType":"uint256","name":"","type":"uint256"}],"name":"beneficiaries","outputs":[{"internalType":"address","name":"wallet","type":"address"},{"internalType":"string","name":"asset","type":"string"},{"internalType":"string","name":"message","type":"string"}],"stateMutability":"view","type":"function"},{"inputs":[],"name":"generalWill","outputs":[{"internalType":"string","name":"","type":"string"}],"stateMutability":"view","type":"function"},{"inputs":[],"name":"getAllBeneficiaries","outputs":[{"components":[{"internalType":"address","name":"wallet","type":"address"},{"internalType":"string","name":"asset","type":"string"},{"internalType":"string","name":"message","type":"string"}],"internalType":"struct Will.Beneficiary[]","name":"","type":"tuple[]"}],"stateMutability":"view","type":"function"},{"inputs":[],"name":"getBeneficiaryCount","outputs":[{"internalType":"uint256","name":"","type":"uint256"}],"stateMutability":"view","type":"function"},{"inputs":[{"internalType":"string","name":"_message","type":"string"}],"name":"updateGeneralWill","outputs":[],"stateMutability":"nonpayable","type":"function"}],"evm":{"bytecode":{"linkReferences":{},"object":"608060405234801561001057600080fd5b50611094806100206000396000f3fe608060405234801561001057600080fd5b50600436106100625760003560e01c80632a19cf6b146100675780632f14bae81461008357806356671e3e146100a15780639a6e7fd1146100bf578063a71005b6146100dd578063efeb5e58146100f9575b600080fd5b610081600480360381019061007c91906107c4565b61012b565b005b61008b6102ca565b6040516100989190610a11565b60405180910390f35b6100a96104a3565b6040516100b69190610a7d565b60405180910390f35b6100c7610531565b6040516100d49190610ab8565b60405180910390f35b6100f760048036038101906100f29190610ad3565b61053e565b005b610113600480360381019061010e9190610b4c565b61058d565b60405161012293929190610b88565b60405180910390f35b600160405180606001604052808773ffffffffffffffffffffffffffffffffffffffff16815260200186868080601f016020809104026020016040519081016040528093929190818152602001838380828437600081840152601f19601f82011690508083019250505050505050815260200184848080601f016020809104026020016040519081016040528093929190818152602001838380828437600081840152601f19601f82011690508083019250505050505050815250908060018154018082558091505060019003906000526020600020906003020160009091909190915060008201518160000160006101000a81548173ffffffffffffffffffffffffffffffffffffffff021916908373ffffffffffffffffffffffffffffffffffffffff160217905550602082015181600101908161026b9190610e08565b5060408201518160020190816102819190610e08565b5050507f66acd2c9d3f900fae2a27e58479b35c5baaa9536fa673ee350f88505edb047b385858585856040516102bb959493929190610f16565b60405180910390a15050505050565b60606001805480602002602001604051908101604052809291908181526020016000905b8282101561049a57838290600052602060002090600302016040518060600160405290816000820160009054906101000a900473ffffffffffffffffffffffffffffffffffffffff1673ffffffffffffffffffffffffffffffffffffffff1673ffffffffffffffffffffffffffffffffffffffff16815260200160018201805461037790610c2b565b80601f01602080910402602001604051908101604052809291908181526020018280546103a390610c2b565b80156103f05780601f106103c5576101008083540402835291602001916103f0565b820191906000526020600020905b8154815290600101906020018083116103d357829003601f168201915b5050505050815260200160028201805461040990610c2b565b80601f016020809104026020016040519081016040528092919081815260200182805461043590610c2b565b80156104825780601f1061045757610100808354040283529160200191610482565b820191906000526020600020905b81548152906001019060200180831161046557829003601f168201915b505050505081525050815260200190600101906102ee565b50505050905090565b600080546104b090610c2b565b80601f01602080910402602001604051908101604052809291908181526020018280546104dc90610c2b565b80156105295780601f106104fe57610100808354040283529160200191610529565b820191906000526020600020905b81548152906001019060200180831161050c57829003601f168201915b505050505081565b6000600180549050905090565b81816000918261054f929190610f6a565b507f3d1db61ee0f8c4e04c034995a754660363396002e2da1ee2faf31d2d76c41e52828260405161058192919061103a565b60405180910390a15050565b6001818154811061059d57600080fd5b90600052602060002090600302016000915090508060000160009054906101000a900473ffffffffffffffffffffffffffffffffffffffff16908060010180546105e690610c2b565b80601f016020809104026020016040519081016040528092919081815260200182805461061290610c2b565b801561065f5780601f106106345761010080835404028352916020019161065f565b820191906000526020600020905b81548152906001019060200180831161064257829003601f168201915b50505050509080600201805461067490610c2b565b80601f01602080910402602001604051908101604052809291908181526020018280546106a090610c2b565b80156106ed5780601f106106c2576101008083540402835291602001916106ed565b820191906000526020600020905b8154815290600101906020018083116106d057829003601f168201915b5050505050905083565b600080fd5b600080fd5b600073ffffffffffffffffffffffffffffffffffffffff82169050919050565b600061072c82610701565b9050919050565b61073c81610721565b811461074757600080fd5b50565b60008135905061075981610733565b92915050565b600080fd5b600080fd5b600080fd5b60008083601f8401126107845761078361075f565b5b8235905067ffffffffffffffff8111156107a1576107a0610764565b5b6020830191508360018202830111156107bd576107bc610769565b5b9250929050565b6000806000806000606086880312156107e0576107df6106f7565b5b60006107ee8882890161074a565b955050602086013567ffffffffffffffff81111561080f5761080e6106fc565b5b61081b8882890161076e565b9450945050604086013567ffffffffffffffff81111561083e5761083d6106fc565b5b61084a8882890161076e565b92509250509295509295909350565b600081519050919050565b600082825260208201905092915050565b6000819050602082019050919050565b61088e81610721565b82525050565b600081519050919050565b600082825260208201905092915050565b60005b838110156108ce5780820151818401526020810190506108b3565b60008484015250505050565b6000601f19601f8301169050919050565b60006108f682610894565b610900818561089f565b93506109108185602086016108b0565b610919816108da565b840191505092915050565b600060608301600083015161093c6000860182610885565b506020830151848203602086015261095482826108eb565b9150506040830151848203604086015261096e82826108eb565b9150508091505092915050565b60006109878383610924565b905092915050565b6000602082019050919050565b60006109a782610859565b6109b18185610864565b9350836020820285016109c385610875565b8060005b858110156109ff57848403895281516109e0858261097b565b94506109eb8361098f565b925060208a019950506001810190506109c7565b50829750879550505050505092915050565b60006020820190508181036000830152610a2b818461099c565b905092915050565b600082825260208201905092915050565b6000610a4f82610894565b610a598185610a33565b9350610a698185602086016108b0565b610a72816108da565b840191505092915050565b60006020820190508181036000830152610a978184610a44565b905092915050565b6000819050919050565b610ab281610a9f565b82525050565b6000602082019050610acd6000830184610aa9565b92915050565b60008060208385031215610aea57610ae96106f7565b5b600083013567ffffffffffffffff811115610b0857610b076106fc565b5b610b148582860161076e565b92509250509250929050565b610b2981610a9f565b8114610b3457600080fd5b50565b600081359050610b4681610b20565b92915050565b600060208284031215610b6257610b616106f7565b5b6000610b7084828501610b37565b91505092915050565b610b8281610721565b82525050565b6000606082019050610b9d6000830186610b79565b8181036020830152610baf8185610a44565b90508181036040830152610bc38184610a44565b9050949350505050565b7f4e487b7100000000000000000000000000000000000000000000000000000000600052604160045260246000fd5b7f4e487b7100000000000000000000000000000000000000000000000000000000600052602260045260246000fd5b60006002820490506001821680610c4357607f821691505b602082108103610c5657610c55610bfc565b5b50919050565b60008190508160005260206000209050919050565b60006020601f8301049050919050565b600082821b905092915050565b600060088302610cbe7fffffffffffffffffffffffffffffffffffffffffffffffffffffffffffffffff82610c81565b610cc88683610c81565b95508019841693508086168417925050509392505050565b6000819050919050565b6000610d05610d00610cfb84610a9f565b610ce0565b610a9f565b9050919050565b6000819050919050565b610d1f83610cea565b610d33610d2b82610d0c565b848454610c8e565b825550505050565b600090565b610d48610d3b565b610d53818484610d16565b505050565b5b81811015610d7757610d6c600082610d40565b600181019050610d59565b5050565b601f821115610dbc57610d8d81610c5c565b610d9684610c71565b81016020851015610da5578190505b610db9610db185610c71565b830182610d58565b50505b505050565b600082821c905092915050565b6000610ddf60001984600802610dc1565b1980831691505092915050565b6000610df88383610dce565b9150826002028217905092915050565b610e1182610894565b67ffffffffffffffff811115610e2a57610e29610bcd565b5b610e348254610c2b565b610e3f828285610d7b565b600060209050601f831160018114610e725760008415610e60578287015190505b610e6a8582610dec565b865550610ed2565b601f198416610e8086610c5c565b60005b82811015610ea857848901518255600182019150602085019450602081019050610e83565b86831015610ec55784890151610ec1601f891682610dce565b8355505b6001600288020188555050505b505050505050565b82818337600083830152505050565b6000610ef58385610a33565b9350610f02838584610eda565b610f0b836108da565b840190509392505050565b6000606082019050610f2b6000830188610b79565b8181036020830152610f3e818688610ee9565b90508181036040830152610f53818486610ee9565b90509695505050505050565b600082905092915050565b610f748383610f5f565b67ffffffffffffffff811115610f8d57610f8c610bcd565b5b610f978254610c2b565b610fa2828285610d7b565b6000601f831160018114610fd15760008415610fbf578287013590505b610fc98582610dec565b865550611031565b601f198416610fdf86610c5c565b60005b8281101561100757848901358255600182019150602085019450602081019050610fe2565b868310156110245784890135611020601f891682610dce565b8355505b6001600288020188555050505b50505050505050565b60006020820190508181036000830152611055818486610ee9565b9050939250505056fea264697066735822122063755a9c1bee3c8e2a13f4b26b66277e38ffbe9abc0b21be6ea409a2b9a9f2db64736f6c63430008130033","opcodes":"PUSH1 0x80 PUSH1 0x40 MSTORE CALLVALUE DUP1 ISZERO PUSH2 0x10 JUMPI PUSH1 0x0 DUP1 REVERT JUMPDEST POP PUSH2 0x1094 DUP1 PUSH2 0x20 PUSH1 0x0 CODECOPY PUSH1 0x0 RETURN INVALID PUSH1 0x80 PUSH1 0x40 MSTORE CALLVALUE DUP1 ISZERO PUSH2 0x10 JUMPI PUSH1 0x0 DUP1 REVERT JUMPDEST POP PUSH1 0x4 CALLDATASIZE LT PUSH2 0x62 JUMPI PUSH1 0x0 CALLDATALOAD PUSH1 0xE0 SHR DUP1 PUSH4 0x2A19CF6B EQ PUSH2 0x67 JUMPI DUP1 PUSH4 0x2F14BAE8 EQ PUSH2 0x83 JUMPI DUP1 PUSH4 0x56671E3E EQ PUSH2 0xA1 JUMPI DUP1 PUSH4 0x9A6E7FD1 EQ PUSH2 0xBF JUMPI DUP1 PUSH4 0xA71005B6 EQ PUSH2 0xDD JUMPI DUP1 PUSH4 0xEFEB5E58 EQ PUSH2 0xF9 JUMPI JUMPDEST PUSH1 0x0 DUP1 REVERT JUMPDEST PUSH2 0x81 PUSH1 0x4 DUP1 CALLDATASIZE SUB DUP2 ADD SWAP1 PUSH2 0x7C SWAP2 SWAP1 PUSH2 0x7C4 JUMP JUMPDEST PUSH2 0x12B JUMP JUMPDEST STOP JUMPDEST PUSH2 0x8B PUSH2 0x2CA JUMP JUMPDEST PUSH1 0x40 MLOAD PUSH2 0x98 SWAP2 SWAP1 PUSH2 0xA11 JUMP JUMPDEST PUSH1 0x40 MLOAD DUP1 SWAP2 SUB SWAP1 RETURN JUMPDEST PUSH2 0xA9 PUSH2 0x4A3 JUMP JUMPDEST PUSH1 0x40 MLOAD PUSH2 0xB6 SWAP2 SWAP1 PUSH2 0xA7D JUMP JUMPDEST PUSH1 0x40 MLOAD DUP1 SWAP2 SUB SWAP1 RETURN JUMPDEST PUSH2 0xC7 PUSH2 0x531 JUMP JUMPDEST PUSH1 0x40 MLOAD PUSH2 0xD4 SWAP2 SWAP1 PUSH2 0xAB8 JUMP JUMPDEST PUSH1 0x40 MLOAD DUP1 SWAP2 SUB SWAP1 RETURN JUMPDEST PUSH2 0xF7 PUSH1 0x4 DUP1 CALLDATASIZE SUB DUP2 ADD SWAP1 PUSH2 0xF2 SWAP2 SWAP1 PUSH2 0xAD3 JUMP JUMPDEST PUSH2 0x53E JUMP JUMPDEST STOP JUMPDEST PUSH2 0x113 PUSH1 0x4 DUP1 CALLDATASIZE SUB DUP2 ADD SWAP1 PUSH2 0x10E SWAP2 SWAP1 PUSH2 0xB4C JUMP JUMPDEST PUSH2 0x58D JUMP JUMPDEST PUSH1 0x40 MLOAD PUSH2 0x122 SWAP4 SWAP3 SWAP2 SWAP1 PUSH2 0xB88 JUMP JUMPDEST PUSH1 0x40 MLOAD DUP1 SWAP2 SUB SWAP1 RETURN JUMPDEST PUSH1 0x1 PUSH1 0x40 MLOAD DUP1 PUSH1 0x60 ADD PUSH1 0x40 MSTORE DUP1 DUP8 PUSH20 0xFFFFFFFFFFFFFFFFFFFFFFFFFFFFFFFFFFFFFFFF AND DUP2 MSTORE PUSH1 0x20 ADD DUP7 DUP7 DUP1 DUP1 PUSH1 0x1F ADD PUSH1 0x20 DUP1 SWAP2 DIV MUL PUSH1 0x20 ADD PUSH1 0x40 MLOAD SWAP1 DUP2 ADD PUSH1 0x40 MSTORE DUP1 SWAP4 SWAP3 SWAP2 SWAP1 DUP2 DUP2 MSTORE PUSH1 0x20 ADD DUP4 DUP4 DUP1 DUP3 DUP5 CALLDATACOPY PUSH1 0x0 DUP2 DUP5 ADD MSTORE PUSH1 0x1F NOT PUSH1 0x1F DUP3 ADD AND SWAP1 POP DUP1 DUP4 ADD SWAP3 POP POP POP POP POP POP POP DUP2 MSTORE PUSH1 0x20 ADD DUP5 DUP5 DUP1 DUP1 PUSH1 0x1F ADD PUSH1 0x20 DUP1 SWAP2 DIV MUL PUSH1 0x20 ADD PUSH1 0x40 MLOAD SWAP1 DUP2 ADD PUSH1 0x40 MSTORE DUP1 SWAP4 SWAP3 SWAP2 SWAP1 DUP2 DUP2 MSTORE PUSH1 0x20 ADD DUP4 DUP4 DUP1 DUP3 DUP5 CALLDATACOPY PUSH1 0x0 DUP2 DUP5 ADD MSTORE PUSH1 0x1F NOT PUSH1 0x1F DUP3 ADD AND SWAP1 POP DUP1 DUP4 ADD SWAP3 POP POP POP POP POP POP POP DUP2 MSTORE POP SWAP1 DUP1 PUSH1 0x1 DUP2 SLOAD ADD DUP1 DUP3 SSTORE DUP1 SWAP2 POP POP PUSH1 0x1 SWAP1 SUB SWAP1 PUSH1 0x0 MSTORE PUSH1 0x20 PUSH1 0x0 KECCAK256 SWAP1 PUSH1 0x3 MUL ADD PUSH1 0x0 SWAP1 SWAP2 SWAP1 SWAP2 SWAP1 SWAP2 POP PUSH1 0x0 DUP3 ADD MLOAD DUP2 PUSH1 0x0 ADD PUSH1 0x0 PUSH2 0x100 EXP DUP2 SLOAD DUP2 PUSH20 0xFFFFFFFFFFFFFFFFFFFFFFFFFFFFFFFFFFFFFFFF MUL NOT AND SWAP1 DUP4 PUSH20 0xFFFFFFFFFFFFFFFFFFFFFFFFFFFFFFFFFFFFFFFF AND MUL OR SWAP1 SSTORE POP PUSH1 0x20 DUP3 ADD MLOAD DUP2 PUSH1 0x1 ADD SWAP1 DUP2 PUSH2 0x26B SWAP2 SWAP1 PUSH2 0xE08 JUMP JUMPDEST POP PUSH1 0x40 DUP3 ADD MLOAD DUP2 PUSH1 0x2 ADD SWAP1 DUP2 PUSH2 0x281 SWAP2 SWAP1 PUSH2 0xE08 JUMP JUMPDEST POP POP POP PUSH32 0x66ACD2C9D3F900FAE2A27E58479B35C5BAAA9536FA673EE350F88505EDB047B3 DUP6 DUP6 DUP6 DUP6 DUP6 PUSH1 0x40 MLOAD PUSH2 0x2BB SWAP6 SWAP5 SWAP4 SWAP3 SWAP2 SWAP1 PUSH2 0xF16 JUMP JUMPDEST PUSH1 0x40 MLOAD DUP1 SWAP2 SUB SWAP1 LOG1 POP POP POP POP POP JUMP JUMPDEST PUSH1 0x60 PUSH1 0x1 DUP1 SLOAD DUP1 PUSH1 0x20 MUL PUSH1 0x20 ADD PUSH1 0x40 MLOAD SWAP1 DUP2 ADD PUSH1 0x40 MSTORE DUP1 SWAP3 SWAP2 SWAP1 DUP2 DUP2 MSTORE PUSH1 0x20 ADD PUSH1 0x0 SWAP1 JUMPDEST DUP3 DUP3 LT ISZERO PUSH2 0x49A JUMPI DUP4 DUP3 SWAP1 PUSH1 0x0 MSTORE PUSH1 0x20 PUSH1 0x0 KECCAK256 SWAP1 PUSH1 0x3 MUL ADD PUSH1 0x40 MLOAD DUP1 PUSH1 0x60 ADD PUSH1 0x40 MSTORE SWAP1 DUP2 PUSH1 0x0 DUP3 ADD PUSH1 0x0 SWAP1 SLOAD SWAP1 PUSH2 0x100 EXP SWAP1 DIV PUSH20 0xFFFFFFFFFFFFFFFFFFFFFFFFFFFFFFFFFFFFFFFF AND PUSH20 0xFFFFFFFFFFFFFFFFFFFFFFFFFFFFFFFFFFFFFFFF AND PUSH20 0xFFFFFFFFFFFFFFFFFFFFFFFFFFFFFFFFFFFFFFFF AND DUP2 MSTORE PUSH1 0x20 ADD PUSH1 0x1 DUP3 ADD DUP1 SLOAD PUSH2 0x377 SWAP1 PUSH2 0xC2B JUMP JUMPDEST DUP1 PUSH1 0x1F ADD PUSH1 0x20 DUP1 SWAP2 DIV MUL PUSH1 0x20 ADD PUSH1 0x40 MLOAD SWAP1 DUP2 ADD PUSH1 0x40 MSTORE DUP1 SWAP3 SWAP2 SWAP1 DUP2 DUP2 MSTORE PUSH1 0x20 ADD DUP3 DUP1 SLOAD PUSH2 0x3A3 SWAP1 PUSH2 0xC2B JUMP JUMPDEST DUP1 ISZERO PUSH2 0x3F0 JUMPI DUP1 PUSH1 0x1F LT PUSH2 0x3C5 JUMPI PUSH2 0x100 DUP1 DUP4 SLOAD DIV MUL DUP4 MSTORE SWAP2 PUSH1 0x20 ADD SWAP2 PUSH2 0x3F0 JUMP JUMPDEST DUP3 ADD SWAP2 SWAP1 PUSH1 0x0 MSTORE PUSH1 0x20 PUSH1 0x0 KECCAK256 SWAP1 JUMPDEST DUP2 SLOAD DUP2 MSTORE SWAP1 PUSH1 0x1 ADD SWAP1 PUSH1 0x20 ADD DUP1 DUP4 GT PUSH2 0x3D3 JUMPI DUP3 SWAP1 SUB PUSH1 0x1F AND DUP3 ADD SWAP2 JUMPDEST POP POP POP POP POP DUP2 MSTORE PUSH1 0x20 ADD PUSH1 0x2 DUP3 ADD DUP1 SLOAD PUSH2 0x409 SWAP1 PUSH2 0xC2B JUMP JUMPDEST DUP1 PUSH1 0x1F ADD PUSH1 0x20 DUP1 SWAP2 DIV MUL PUSH1 0x20 ADD PUSH1 0x40 MLOAD SWAP1 DUP2 ADD PUSH1 0x40 MSTORE DUP1 SWAP3 SWAP2 SWAP1 DUP2 DUP2 MSTORE PUSH1 0x20 ADD DUP3 DUP1 SLOAD PUSH2 0x435 SWAP1 PUSH2 0xC2B JUMP JUMPDEST DUP1 ISZERO PUSH2 0x482 JUMPI DUP1 PUSH1 0x1F LT PUSH2 0x457 JUMPI PUSH2 0x100 DUP1 DUP4 SLOAD DIV MUL DUP4 MSTORE SWAP2 PUSH1 0x20 ADD SWAP2 PUSH2 0x482 JUMP JUMPDEST DUP3 ADD SWAP2 SWAP1 PUSH1 0x0 MSTORE PUSH1 0x20 PUSH1 0x0 KECCAK256 SWAP1 JUMPDEST DUP2 SLOAD DUP2 MSTORE SWAP1 PUSH1 0x1 ADD SWAP1 PUSH1 0x20 ADD DUP1 DUP4 GT PUSH2 0x465 JUMPI DUP3 SWAP1 SUB PUSH1 0x1F AND DUP3 ADD SWAP2 JUMPDEST POP POP POP POP POP DUP2 MSTORE POP POP DUP2 MSTORE PUSH1 0x20 ADD SWAP1 PUSH1 0x1 ADD SWAP1 PUSH2 0x2EE JUMP JUMPDEST POP POP POP POP SWAP1 POP SWAP1 JUMP JUMPDEST PUSH1 0x0 DUP1 SLOAD PUSH2 0x4B0 SWAP1 PUSH2 0xC2B JUMP JUMPDEST DUP1 PUSH1 0x1F ADD PUSH1 0x20 DUP1 SWAP2 DIV MUL PUSH1 0x20 ADD PUSH1 0x40 MLOAD SWAP1 DUP2 ADD PUSH1 0x40 MSTORE DUP1 SWAP3 SWAP2 SWAP1 DUP2 DUP2 MSTORE PUSH1 0x20 ADD DUP3 DUP1 SLOAD PUSH2 0x4DC SWAP1 PUSH2 0xC2B JUMP JUMPDEST DUP1 ISZERO PUSH2 0x529 JUMPI DUP1 PUSH1 0x1F LT PUSH2 0x4FE JUMPI PUSH2 0x100 DUP1 DUP4 SLOAD DIV MUL DUP4 MSTORE SWAP2 PUSH1 0x20 ADD SWAP2 PUSH2 0x529 JUMP JUMPDEST DUP3 ADD SWAP2 SWAP1 PUSH1 0x0 MSTORE PUSH1 0x20 PUSH1 0x0 KECCAK256 SWAP1 JUMPDEST DUP2 SLOAD DUP2 MSTORE SWAP1 PUSH1 0x1 ADD SWAP1 PUSH1 0x20 ADD DUP1 DUP4 GT PUSH2 0x50C JUMPI DUP3 SWAP1 SUB PUSH1 0x1F AND DUP3 ADD SWAP2 JUMPDEST POP POP POP POP POP DUP2 JUMP JUMPDEST PUSH1 0x0 PUSH1 0x1 DUP1 SLOAD SWAP1 POP SWAP1 POP SWAP1 JUMP JUMPDEST DUP2 DUP2 PUSH1 0x0 SWAP2 DUP3 PUSH2 0x54F SWAP3 SWAP2 SWAP1 PUSH2 0xF6A JUMP JUMPDEST POP PUSH32 0x3D1DB61EE0F8C4E04C034995A754660363396002E2DA1EE2FAF31D2D76C41E52 DUP3 DUP3 PUSH1 0x40 MLOAD PUSH2 0x581 SWAP3 SWAP2 SWAP1 PUSH2 0x103A JUMP JUMPDEST PUSH1 0x40 MLOAD DUP1 SWAP2 SUB SWAP1 LOG1 POP POP JUMP JUMPDEST PUSH1 0x1 DUP2 DUP2 SLOAD DUP2 LT PUSH2 0x59D JUMPI PUSH1 0x0 DUP1 REVERT JUMPDEST SWAP1 PUSH1 0x0 MSTORE PUSH1 0x20 PUSH1 0x0 KECCAK256 SWAP1 PUSH1 0x3 MUL ADD PUSH1 0x0 SWAP2 POP SWAP1 POP DUP1 PUSH1 0x0 ADD PUSH1 0x0 SWAP1 SLOAD SWAP1 PUSH2 0x100 EXP SWAP1 DIV PUSH20 0xFFFFFFFFFFFFFFFFFFFFFFFFFFFFFFFFFFFFFFFF AND SWAP1 DUP1 PUSH1 0x1 ADD DUP1 SLOAD PUSH2 0x5E6 SWAP1 PUSH2 0xC2B JUMP JUMPDEST DUP1 PUSH1 0x1F ADD PUSH1 0x20 DUP1 SWAP2 DIV MUL PUSH1 0x20 ADD PUSH1 0x40 MLOAD SWAP1 DUP2 ADD PUSH1 0x40 MSTORE DUP1 SWAP3 SWAP2 SWAP1 DUP2 DUP2 MSTORE PUSH1 0x20 ADD DUP3 DUP1 SLOAD PUSH2 0x612 SWAP1 PUSH2 0xC2B JUMP JUMPDEST DUP1 ISZERO PUSH2 0x65F JUMPI DUP1 PUSH1 0x1F LT PUSH2 0x634 JUMPI PUSH2 0x100 DUP1 DUP4 SLOAD DIV MUL DUP4 MSTORE SWAP2 PUSH1 0x20 ADD SWAP2 PUSH2 0x65F JUMP JUMPDEST DUP3 ADD SWAP2 SWAP1 PUSH1 0x0 MSTORE PUSH1 0x20 PUSH1 0x0 KECCAK256 SWAP1 JUMPDEST DUP2 SLOAD DUP2 MSTORE SWAP1 PUSH1 0x1 ADD SWAP1 PUSH1 0x20 ADD DUP1 DUP4 GT PUSH2 0x642 JUMPI DUP3 SWAP1 SUB PUSH1 0x1F AND DUP3 ADD SWAP2 JUMPDEST POP POP POP POP POP SWAP1 DUP1 PUSH1 0x2 ADD DUP1 SLOAD PUSH2 0x674 SWAP1 PUSH2 0xC2B JUMP JUMPDEST DUP1 PUSH1 0x1F ADD PUSH1 0x20 DUP1 SWAP2 DIV MUL PUSH1 0x20 ADD PUSH1 0x40 MLOAD SWAP1 DUP2 ADD PUSH1 0x40 MSTORE DUP1 SWAP3 SWAP2 SWAP1 DUP2 DUP2 MSTORE PUSH1 0x20 ADD DUP3 DUP1 SLOAD PUSH2 0x6A0 SWAP1 PUSH2 0xC2B JUMP JUMPDEST DUP1 ISZERO PUSH2 0x6ED JUMPI DUP1 PUSH1 0x1F LT PUSH2 0x6C2 JUMPI PUSH2 0x100 DUP1 DUP4 SLOAD DIV MUL DUP4 MSTORE SWAP2 PUSH1 0x20 ADD SWAP2 PUSH2 0x6ED JUMP JUMPDEST DUP3 ADD SWAP2 SWAP1 PUSH1 0x0 MSTORE PUSH1 0x20 PUSH1 0x0 KECCAK256 SWAP1 JUMPDEST DUP2 SLOAD DUP2 MSTORE SWAP1 PUSH1 0x1 ADD SWAP1 PUSH1 0x20 ADD DUP1 DUP4 GT PUSH2 0x6D0 JUMPI DUP3 SWAP1 SUB PUSH1 0x1F AND DUP3 ADD SWAP2 JUMPDEST POP POP POP POP POP SWAP1 POP DUP4 JUMP JUMPDEST PUSH1 0x0 DUP1 REVERT JUMPDEST PUSH1 0x0 DUP1 REVERT JUMPDEST PUSH1 0x0 PUSH20 0xFFFFFFFFFFFFFFFFFFFFFFFFFFFFFFFFFFFFFFFF DUP3 AND SWAP1 POP SWAP2 SWAP1 POP JUMP JUMPDEST PUSH1 0x0 PUSH2 0x72C DUP3 PUSH2 0x701 JUMP JUMPDEST SWAP1 POP SWAP2 SWAP1 POP JUMP JUMPDEST PUSH2 0x73C DUP2 PUSH2 0x721 JUMP JUMPDEST DUP2 EQ PUSH2 0x747 JUMPI PUSH1 0x0 DUP1 REVERT JUMPDEST POP JUMP JUMPDEST PUSH1 0x0 DUP2 CALLDATALOAD SWAP1 POP PUSH2 0x759 DUP2 PUSH2 0x733 JUMP JUMPDEST SWAP3 SWAP2 POP POP JUMP JUMPDEST PUSH1 0x0 DUP1 REVERT JUMPDEST PUSH1 0x0 DUP1 REVERT JUMPDEST PUSH1 0x0 DUP1 REVERT JUMPDEST PUSH1 0x0 DUP1 DUP4 PUSH1 0x1F DUP5 ADD SLT PUSH2 0x784 JUMPI PUSH2 0x783 PUSH2 0x75F JUMP JUMPDEST JUMPDEST DUP3 CALLDATALOAD SWAP1 POP PUSH8 0xFFFFFFFFFFFFFFFF DUP2 GT ISZERO PUSH2 0x7A1 JUMPI PUSH2 0x7A0 PUSH2 0x764 JUMP JUMPDEST JUMPDEST PUSH1 0x20 DUP4 ADD SWAP2 POP DUP4 PUSH1 0x1 DUP3 MUL DUP4 ADD GT ISZERO PUSH2 0x7BD JUMPI PUSH2 0x7BC PUSH2 0x769 JUMP JUMPDEST JUMPDEST SWAP3 POP SWAP3 SWAP1 POP JUMP JUMPDEST PUSH1 0x0 DUP1 PUSH1 0x0 DUP1 PUSH1 0x0 PUSH1 0x60 DUP7 DUP9 SUB SLT ISZERO PUSH2 0x7E0 JUMPI PUSH2 0x7DF PUSH2 0x6F7 JUMP JUMPDEST JUMPDEST PUSH1 0x0 PUSH2 0x7EE DUP9 DUP3 DUP10 ADD PUSH2 0x74A JUMP JUMPDEST SWAP6 POP POP PUSH1 0x20 DUP7 ADD CALLDATALOAD PUSH8 0xFFFFFFFFFFFFFFFF DUP2 GT ISZERO PUSH2 0x80F JUMPI PUSH2 0x80E PUSH2 0x6FC JUMP JUMPDEST JUMPDEST PUSH2 0x81B DUP9 DUP3 DUP10 ADD PUSH2 0x76E JUMP JUMPDEST SWAP5 POP SWAP5 POP POP PUSH1 0x40 DUP7 ADD CALLDATALOAD PUSH8 0xFFFFFFFFFFFFFFFF DUP2 GT ISZERO PUSH2 0x83E JUMPI PUSH2 0x83D PUSH2 0x6FC JUMP JUMPDEST JUMPDEST PUSH2 0x84A DUP9 DUP3 DUP10 ADD PUSH2 0x76E JUMP JUMPDEST SWAP3 POP SWAP3 POP POP SWAP3 SWAP6 POP SWAP3 SWAP6 SWAP1 SWAP4 POP JUMP JUMPDEST PUSH1 0x0 DUP2 MLOAD SWAP1 POP SWAP2 SWAP1 POP JUMP JUMPDEST PUSH1 0x0 DUP3 DUP3 MSTORE PUSH1 0x20 DUP3 ADD SWAP1 POP SWAP3 SWAP2 POP POP JUMP JUMPDEST PUSH1 0x0 DUP2 SWAP1 POP PUSH1 0x20 DUP3 ADD SWAP1 POP SWAP2 SWAP1 POP JUMP JUMPDEST PUSH2 0x88E DUP2 PUSH2 0x721 JUMP JUMPDEST DUP3 MSTORE POP POP JUMP JUMPDEST PUSH1 0x0 DUP2 MLOAD SWAP1 POP SWAP2 SWAP1 POP JUMP JUMPDEST PUSH1 0x0 DUP3 DUP3 MSTORE PUSH1 0x20 DUP3 ADD SWAP1 POP SWAP3 SWAP2 POP POP JUMP JUMPDEST PUSH1 0x0 JUMPDEST DUP4 DUP2 LT ISZERO PUSH2 0x8CE JUMPI DUP1 DUP3 ADD MLOAD DUP2 DUP5 ADD MSTORE PUSH1 0x20 DUP2 ADD SWAP1 POP PUSH2 0x8B3 JUMP JUMPDEST PUSH1 0x0 DUP5 DUP5 ADD MSTORE POP POP POP POP JUMP JUMPDEST PUSH1 0x0 PUSH1 0x1F NOT PUSH1 0x1F DUP4 ADD AND SWAP1 POP SWAP2 SWAP1 POP JUMP JUMPDEST PUSH1 0x0 PUSH2 0x8F6 DUP3 PUSH2 0x894 JUMP JUMPDEST PUSH2 0x900 DUP2 DUP6 PUSH2 0x89F JUMP JUMPDEST SWAP4 POP PUSH2 0x910 DUP2 DUP6 PUSH1 0x20 DUP7 ADD PUSH2 0x8B0 JUMP JUMPDEST PUSH2 0x919 DUP2 PUSH2 0x8DA JUMP JUMPDEST DUP5 ADD SWAP2 POP POP SWAP3 SWAP2 POP POP JUMP JUMPDEST PUSH1 0x0 PUSH1 0x60 DUP4 ADD PUSH1 0x0 DUP4 ADD MLOAD PUSH2 0x93C PUSH1 0x0 DUP7 ADD DUP3 PUSH2 0x885 JUMP JUMPDEST POP PUSH1 0x20 DUP4 ADD MLOAD DUP5 DUP3 SUB PUSH1 0x20 DUP7 ADD MSTORE PUSH2 0x954 DUP3 DUP3 PUSH2 0x8EB JUMP JUMPDEST SWAP2 POP POP PUSH1 0x40 DUP4 ADD MLOAD DUP5 DUP3 SUB PUSH1 0x40 DUP7 ADD MSTORE PUSH2 0x96E DUP3 DUP3 PUSH2 0x8EB JUMP JUMPDEST SWAP2 POP POP DUP1 SWAP2 POP POP SWAP3 SWAP2 POP POP JUMP JUMPDEST PUSH1 0x0 PUSH2 0x987 DUP4 DUP4 PUSH2 0x924 JUMP JUMPDEST SWAP1 POP SWAP3 SWAP2 POP POP JUMP JUMPDEST PUSH1 0x0 PUSH1 0x20 DUP3 ADD SWAP1 POP SWAP2 SWAP1 POP JUMP JUMPDEST PUSH1 0x0 PUSH2 0x9A7 DUP3 PUSH2 0x859 JUMP JUMPDEST PUSH2 0x9B1 DUP2 DUP6 PUSH2 0x864 JUMP JUMPDEST SWAP4 POP DUP4 PUSH1 0x20 DUP3 MUL DUP6 ADD PUSH2 0x9C3 DUP6 PUSH2 0x875 JUMP JUMPDEST DUP1 PUSH1 0x0 JUMPDEST DUP6 DUP2 LT ISZERO PUSH2 0x9FF JUMPI DUP5 DUP5 SUB DUP10 MSTORE DUP2 MLOAD PUSH2 0x9E0 DUP6 DUP3 PUSH2 0x97B JUMP JUMPDEST SWAP5 POP PUSH2 0x9EB DUP4 PUSH2 0x98F JUMP JUMPDEST SWAP3 POP PUSH1 0x20 DUP11 ADD SWAP10 POP POP PUSH1 0x1 DUP2 ADD SWAP1 POP PUSH2 0x9C7 JUMP JUMPDEST POP DUP3 SWAP8 POP DUP8 SWAP6 POP POP POP POP POP POP SWAP3 SWAP2 POP POP JUMP JUMPDEST PUSH1 0x0 PUSH1 0x20 DUP3 ADD SWAP1 POP DUP2 DUP2 SUB PUSH1 0x0 DUP4 ADD MSTORE PUSH2 0xA2B DUP2 DUP5 PUSH2 0x99C JUMP JUMPDEST SWAP1 POP SWAP3 SWAP2 POP POP JUMP JUMPDEST PUSH1 0x0 DUP3 DUP3 MSTORE PUSH1 0x20 DUP3 ADD SWAP1 POP SWAP3 SWAP2 POP POP JUMP JUMPDEST PUSH1 0x0 PUSH2 0xA4F DUP3 PUSH2 0x894 JUMP JUMPDEST PUSH2 0xA59 DUP2 DUP6 PUSH2 0xA33 JUMP JUMPDEST SWAP4 POP PUSH2 0xA69 DUP2 DUP6 PUSH1 0x20 DUP7 ADD PUSH2 0x8B0 JUMP JUMPDEST PUSH2 0xA72 DUP2 PUSH2 0x8DA JUMP JUMPDEST DUP5 ADD SWAP2 POP POP SWAP3 SWAP2 POP POP JUMP JUMPDEST PUSH1 0x0 PUSH1 0x20 DUP3 ADD SWAP1 POP DUP2 DUP2 SUB PUSH1 0x0 DUP4 ADD MSTORE PUSH2 0xA97 DUP2 DUP5 PUSH2 0xA44 JUMP JUMPDEST SWAP1 POP SWAP3 SWAP2 POP POP JUMP JUMPDEST PUSH1 0x0 DUP2 SWAP1 POP SWAP2 SWAP1 POP JUMP JUMPDEST PUSH2 0xAB2 DUP2 PUSH2 0xA9F JUMP JUMPDEST DUP3 MSTORE POP POP JUMP JUMPDEST PUSH1 0x0 PUSH1 0x20 DUP3 ADD SWAP1 POP PUSH2 0xACD PUSH1 0x0 DUP4 ADD DUP5 PUSH2 0xAA9 JUMP JUMPDEST SWAP3 SWAP2 POP POP JUMP JUMPDEST PUSH1 0x0 DUP1 PUSH1 0x20 DUP4 DUP6 SUB SLT ISZERO PUSH2 0xAEA JUMPI PUSH2 0xAE9 PUSH2 0x6F7 JUMP JUMPDEST JUMPDEST PUSH1 0x0 DUP4 ADD CALLDATALOAD PUSH8 0xFFFFFFFFFFFFFFFF DUP2 GT ISZERO PUSH2 0xB08 JUMPI PUSH2 0xB07 PUSH2 0x6FC JUMP JUMPDEST JUMPDEST PUSH2 0xB14 DUP6 DUP3 DUP7 ADD PUSH2 0x76E JUMP JUMPDEST SWAP3 POP SWAP3 POP POP SWAP3 POP SWAP3 SWAP1 POP JUMP JUMPDEST PUSH2 0xB29 DUP2 PUSH2 0xA9F JUMP JUMPDEST DUP2 EQ PUSH2 0xB34 JUMPI PUSH1 0x0 DUP1 REVERT JUMPDEST POP JUMP JUMPDEST PUSH1 0x0 DUP2 CALLDATALOAD SWAP1 POP PUSH2 0xB46 DUP2 PUSH2 0xB20 JUMP JUMPDEST SWAP3 SWAP2 POP POP JUMP JUMPDEST PUSH1 0x0 PUSH1 0x20 DUP3 DUP5 SUB SLT ISZERO PUSH2 0xB62 JUMPI PUSH2 0xB61 PUSH2 0x6F7 JUMP JUMPDEST JUMPDEST PUSH1 0x0 PUSH2 0xB70 DUP5 DUP3 DUP6 ADD PUSH2 0xB37 JUMP JUMPDEST SWAP2 POP POP SWAP3 SWAP2 POP POP JUMP JUMPDEST PUSH2 0xB82 DUP2 PUSH2 0x721 JUMP JUMPDEST DUP3 MSTORE POP POP JUMP JUMPDEST PUSH1 0x0 PUSH1 0x60 DUP3 ADD SWAP1 POP PUSH2 0xB9D PUSH1 0x0 DUP4 ADD DUP7 PUSH2 0xB79 JUMP JUMPDEST DUP2 DUP2 SUB PUSH1 0x20 DUP4 ADD MSTORE PUSH2 0xBAF DUP2 DUP6 PUSH2 0xA44 JUMP JUMPDEST SWAP1 POP DUP2 DUP2 SUB PUSH1 0x40 DUP4 ADD MSTORE PUSH2 0xBC3 DUP2 DUP5 PUSH2 0xA44 JUMP JUMPDEST SWAP1 POP SWAP5 SWAP4 POP POP POP POP JUMP JUMPDEST PUSH32 0x4E487B7100000000000000000000000000000000000000000000000000000000 PUSH1 0x0 MSTORE PUSH1 0x41 PUSH1 0x4 MSTORE PUSH1 0x24 PUSH1 0x0 REVERT JUMPDEST PUSH32 0x4E487B7100000000000000000000000000000000000000000000000000000000 PUSH1 0x0 MSTORE PUSH1 0x22 PUSH1 0x4 MSTORE PUSH1 0x24 PUSH1 0x0 REVERT JUMPDEST PUSH1 0x0 PUSH1 0x2 DUP3 DIV SWAP1 POP PUSH1 0x1 DUP3 AND DUP1 PUSH2 0xC43 JUMPI PUSH1 0x7F DUP3 AND SWAP2 POP JUMPDEST PUSH1 0x20 DUP3 LT DUP2 SUB PUSH2 0xC56 JUMPI PUSH2 0xC55 PUSH2 0xBFC JUMP JUMPDEST JUMPDEST POP SWAP2 SWAP1 POP JUMP JUMPDEST PUSH1 0x0 DUP2 SWAP1 POP DUP2 PUSH1 0x0 MSTORE PUSH1 0x20 PUSH1 0x0 KECCAK256 SWAP1 POP SWAP2 SWAP1 POP JUMP JUMPDEST PUSH1 0x0 PUSH1 0x20 PUSH1 0x1F DUP4 ADD DIV SWAP1 POP SWAP2 SWAP1 POP JUMP JUMPDEST PUSH1 0x0 DUP3 DUP3 SHL SWAP1 POP SWAP3 SWAP2 POP POP JUMP JUMPDEST PUSH1 0x0 PUSH1 0x8 DUP4 MUL PUSH2 0xCBE PUSH32 0xFFFFFFFFFFFFFFFFFFFFFFFFFFFFFFFFFFFFFFFFFFFFFFFFFFFFFFFFFFFFFFFF DUP3 PUSH2 0xC81 JUMP JUMPDEST PUSH2 0xCC8 DUP7 DUP4 PUSH2 0xC81 JUMP JUMPDEST SWAP6 POP DUP1 NOT DUP5 AND SWAP4 POP DUP1 DUP7 AND DUP5 OR SWAP3 POP POP POP SWAP4 SWAP3 POP POP POP JUMP JUMPDEST PUSH1 0x0 DUP2 SWAP1 POP SWAP2 SWAP1 POP JUMP JUMPDEST PUSH1 0x0 PUSH2 0xD05 PUSH2 0xD00 PUSH2 0xCFB DUP5 PUSH2 0xA9F JUMP JUMPDEST PUSH2 0xCE0 JUMP JUMPDEST PUSH2 0xA9F JUMP JUMPDEST SWAP1 POP SWAP2 SWAP1 POP JUMP JUMPDEST PUSH1 0x0 DUP2 SWAP1 POP SWAP2 SWAP1 POP JUMP JUMPDEST PUSH2 0xD1F DUP4 PUSH2 0xCEA JUMP JUMPDEST PUSH2 0xD33 PUSH2 0xD2B DUP3 PUSH2 0xD0C JUMP JUMPDEST DUP5 DUP5 SLOAD PUSH2 0xC8E JUMP JUMPDEST DUP3 SSTORE POP POP POP POP JUMP JUMPDEST PUSH1 0x0 SWAP1 JUMP JUMPDEST PUSH2 0xD48 PUSH2 0xD3B JUMP JUMPDEST PUSH2 0xD53 DUP2 DUP5 DUP5 PUSH2 0xD16 JUMP JUMPDEST POP POP POP JUMP JUMPDEST JUMPDEST DUP2 DUP2 LT ISZERO PUSH2 0xD77 JUMPI PUSH2 0xD6C PUSH1 0x0 DUP3 PUSH2 0xD40 JUMP JUMPDEST PUSH1 0x1 DUP2 ADD SWAP1 POP PUSH2 0xD59 JUMP JUMPDEST POP POP JUMP JUMPDEST PUSH1 0x1F DUP3 GT ISZERO PUSH2 0xDBC JUMPI PUSH2 0xD8D DUP2 PUSH2 0xC5C JUMP JUMPDEST PUSH2 0xD96 DUP5 PUSH2 0xC71 JUMP JUMPDEST DUP2 ADD PUSH1 0x20 DUP6 LT ISZERO PUSH2 0xDA5 JUMPI DUP2 SWAP1 POP JUMPDEST PUSH2 0xDB9 PUSH2 0xDB1 DUP6 PUSH2 0xC71 JUMP JUMPDEST DUP4 ADD DUP3 PUSH2 0xD58 JUMP JUMPDEST POP POP JUMPDEST POP POP POP JUMP JUMPDEST PUSH1 0x0 DUP3 DUP3 SHR SWAP1 POP SWAP3 SWAP2 POP POP JUMP JUMPDEST PUSH1 0x0 PUSH2 0xDDF PUSH1 0x0 NOT DUP5 PUSH1 0x8 MUL PUSH2 0xDC1 JUMP JUMPDEST NOT DUP1 DUP4 AND SWAP2 POP POP SWAP3 SWAP2 POP POP JUMP JUMPDEST PUSH1 0x0 PUSH2 0xDF8 DUP4 DUP4 PUSH2 0xDCE JUMP JUMPDEST SWAP2 POP DUP3 PUSH1 0x2 MUL DUP3 OR SWAP1 POP SWAP3 SWAP2 POP POP JUMP JUMPDEST PUSH2 0xE11 DUP3 PUSH2 0x894 JUMP JUMPDEST PUSH8 0xFFFFFFFFFFFFFFFF DUP2 GT ISZERO PUSH2 0xE2A JUMPI PUSH2 0xE29 PUSH2 0xBCD JUMP JUMPDEST JUMPDEST PUSH2 0xE34 DUP3 SLOAD PUSH2 0xC2B JUMP JUMPDEST PUSH2 0xE3F DUP3 DUP3 DUP6 PUSH2 0xD7B JUMP JUMPDEST PUSH1 0x0 PUSH1 0x20 SWAP1 POP PUSH1 0x1F DUP4 GT PUSH1 0x1 DUP2 EQ PUSH2 0xE72 JUMPI PUSH1 0x0 DUP5 ISZERO PUSH2 0xE60 JUMPI DUP3 DUP8 ADD MLOAD SWAP1 POP JUMPDEST PUSH2 0xE6A DUP6 DUP3 PUSH2 0xDEC JUMP JUMPDEST DUP7 SSTORE POP PUSH2 0xED2 JUMP JUMPDEST PUSH1 0x1F NOT DUP5 AND PUSH2 0xE80 DUP7 PUSH2 0xC5C JUMP JUMPDEST PUSH1 0x0 JUMPDEST DUP3 DUP2 LT ISZERO PUSH2 0xEA8 JUMPI DUP5 DUP10 ADD MLOAD DUP3 SSTORE PUSH1 0x1 DUP3 ADD SWAP2 POP PUSH1 0x20 DUP6 ADD SWAP5 POP PUSH1 0x20 DUP2 ADD SWAP1 POP PUSH2 0xE83 JUMP JUMPDEST DUP7 DUP4 LT ISZERO PUSH2 0xEC5 JUMPI DUP5 DUP10 ADD MLOAD PUSH2 0xEC1 PUSH1 0x1F DUP10 AND DUP3 PUSH2 0xDCE JUMP JUMPDEST DUP4 SSTORE POP JUMPDEST PUSH1 0x1 PUSH1 0x2 DUP9 MUL ADD DUP9 SSTORE POP POP POP JUMPDEST POP POP POP POP POP POP JUMP JUMPDEST DUP3 DUP2 DUP4 CALLDATACOPY PUSH1 0x0 DUP4 DUP4 ADD MSTORE POP POP POP JUMP JUMPDEST PUSH1 0x0 PUSH2 0xEF5 DUP4 DUP6 PUSH2 0xA33 JUMP JUMPDEST SWAP4 POP PUSH2 0xF02 DUP4 DUP6 DUP5 PUSH2 0xEDA JUMP JUMPDEST PUSH2 0xF0B DUP4 PUSH2 0x8DA JUMP JUMPDEST DUP5 ADD SWAP1 POP SWAP4 SWAP3 POP POP POP JUMP JUMPDEST PUSH1 0x0 PUSH1 0x60 DUP3 ADD SWAP1 POP PUSH2 0xF2B PUSH1 0x0 DUP4 ADD DUP9 PUSH2 0xB79 JUMP JUMPDEST DUP2 DUP2 SUB PUSH1 0x20 DUP4 ADD MSTORE PUSH2 0xF3E DUP2 DUP7 DUP9 PUSH2 0xEE9 JUMP JUMPDEST SWAP1 POP DUP2 DUP2 SUB PUSH1 0x40 DUP4 ADD MSTORE PUSH2 0xF53 DUP2 DUP5 DUP7 PUSH2 0xEE9 JUMP JUMPDEST SWAP1 POP SWAP7 SWAP6 POP POP POP POP POP POP JUMP JUMPDEST PUSH1 0x0 DUP3 SWAP1 POP SWAP3 SWAP2 POP POP JUMP JUMPDEST PUSH2 0xF74 DUP4 DUP4 PUSH2 0xF5F JUMP JUMPDEST PUSH8 0xFFFFFFFFFFFFFFFF DUP2 GT ISZERO PUSH2 0xF8D JUMPI PUSH2 0xF8C PUSH2 0xBCD JUMP JUMPDEST JUMPDEST PUSH2 0xF97 DUP3 SLOAD PUSH2 0xC2B JUMP JUMPDEST PUSH2 0xFA2 DUP3 DUP3 DUP6 PUSH2 0xD7B JUMP JUMPDEST PUSH1 0x0 PUSH1 0x1F DUP4 GT PUSH1 0x1 DUP2 EQ PUSH2 0xFD1 JUMPI PUSH1 0x0 DUP5 ISZERO PUSH2 0xFBF JUMPI DUP3 DUP8 ADD CALLDATALOAD SWAP1 POP JUMPDEST PUSH2 0xFC9 DUP6 DUP3 PUSH2 0xDEC JUMP JUMPDEST DUP7 SSTORE POP PUSH2 0x1031 JUMP JUMPDEST PUSH1 0x1F NOT DUP5 AND PUSH2 0xFDF DUP7 PUSH2 0xC5C JUMP JUMPDEST PUSH1 0x0 JUMPDEST DUP3 DUP2 LT ISZERO PUSH2 0x1007 JUMPI DUP5 DUP10 ADD CALLDATALOAD DUP3 SSTORE PUSH1 0x1 DUP3 ADD SWAP2 POP PUSH1 0x20 DUP6 ADD SWAP5 POP PUSH1 0x20 DUP2 ADD SWAP1 POP PUSH2 0xFE2 JUMP JUMPDEST DUP7 DUP4 LT ISZERO PUSH2 0x1024 JUMPI DUP5 DUP10 ADD CALLDATALOAD PUSH2 0x1020 PUSH1 0x1F DUP10 AND DUP3 PUSH2 0xDCE JUMP JUMPDEST DUP4 SSTORE POP JUMPDEST PUSH1 0x1 PUSH1 0x2 DUP9 MUL ADD DUP9 SSTORE POP POP POP JUMPDEST POP POP POP POP POP POP POP JUMP JUMPDEST PUSH1 0x0 PUSH1 0x20 DUP3 ADD SWAP1 POP DUP2 DUP2 SUB PUSH1 0x0 DUP4 ADD MSTORE PUSH2 0x1055 DUP2 DUP5 DUP7 PUSH2 0xEE9 JUMP JUMPDEST SWAP1 POP SWAP4 SWAP3 POP POP POP JUMP INVALID LOG2 PUSH5 0x6970667358 0x22 SLT KECCAK256 PUSH4 0x755A9C1B 0xEE EXTCODECOPY DUP15 0x2A SGT DELEGATECALL 0xB2 PUSH12 0x66277E38FFBE9ABC0B21BE6E LOG4 MULMOD LOG2 0xB9 0xA9 CALLCODE 0xDB PUSH5 0x736F6C6343 STOP ADDMOD SGT STOP CALLER "},"methodIdentifiers":{"addBeneficiary(address,string,string)":"2a19cf6b","beneficiaries(uint256)":"efeb5e58","generalWill()":"56671e3e","getAllBeneficiaries()":"2f14bae8","getBeneficiaryCount()":"9a6e7fd1","updateGeneralWill(string)":"a71005b6"}}}}}