{
  "_format": "hh-sol-artifact-1",
  "contractName": "Will",
  "sourceName": "contracts/Will.sol",
  "abi": [
    {
      "anonymous": false,
      "inputs": [
        {
          "indexed": false,
          "internalType": "address",
          "name": "wallet",
          "type": "address"
        },
        {
          "indexed": false,
          "internalType": "string",
          "name": "asset",
          "type": "string"
        },
        {
          "indexed": false,
          "internalType": "string",
          "name": "message",
          "type": "string"
        }
      ],
      "name": "BeneficiaryAdded",
      "type": "event"
    },
    {
      "anonymous": false,
      "inputs": [
        {
          "indexed": false,
          "internalType": "string",
          "name": "newMessage",
          "type": "string"
        }
      ],
      "name": "WillUpdated",
      "type": "event"
    },
    {
      "inputs": [
        {
          "internalType": "address",
          "name": "_wallet",
          "type": "address"
        },
        {
          "internalType": "string",
          "name": "_asset",
          "type": "string"
        },
        {
          "internalType": "string",
          "name": "_message",
          "type": "string"
        }
      ],
      "name": "addBeneficiary",
      "outputs": [],
      "stateMutability": "nonpayable",
      "type": "function"
    },
    {
      "inputs": [
        {
          "internalType": "uint256",
          "name": "",
          "type": "uint256"
        }
      ],
      "name": "beneficiaries",
      "outputs": [
        {
          "internalType": "address",
          "name": "wallet",
          "type": "address"
        },
        {
          "internalType": "string",
          "name": "asset",
          "type": "string"
        },
        {
          "internalType": "string",
          "name": "message",
          "type": "string"
        }
      ],
      "stateMutability": "view",
      "type": "function"
    },
    {
      "inputs": [],
      "name": "generalWill",
      "outputs": [
        {
          "internalType": "string",
          "name": "",
          "type": "string"
        }
      ],
      "stateMutability": "view",
      "type": "function"
    },
    {
      "inputs": [],
      "name": "getAllBeneficiaries",
      "outputs": [
        {
          "components": [
            {
              "internalType": "address",
              "name": "wallet",
              "type": "address"
            },
            {
              "internalType": "string",
              "name": "asset",
              "type": "string"
            },
            {
              "internalType": "string",
              "name": "message",
              "type": "string"
            }
          ],
          "internalType": "struct Will.Beneficiary[]",
          "name": "",
          "type": "tuple[]"
        }
      ],
      "stateMutability": "view",
      "type": "function"
    },
    {
      "inputs": [],
      "name": "getBeneficiaryCount",
      "outputs": [
        {
          "internalType": "uint256",
          "name": "",
          "type": "uint256"
        }
      ],
      "stateMutability": "view",
      "type": "function"
    },
    {
      "inputs": [
        {
          "internalType": "string",
          "name": "_message",
          "type": "string"
        }
      ],
      "name": "updateGeneralWill",
      "outputs": [],
      "stateMutability": "nonpayable",
      "type": "function"
    }
  ],
  "bytecode": "0x608060405234801561001057600080fd5b50611094806100206000396000f3fe608060405234801561001057600080fd5b50600436106100625760003560e01c80632a19cf6b146100675780632f14bae81461008357806356671e3e146100a15780639a6e7fd1146100bf578063a71005b6146100dd578063efeb5e58146100f9575b600080fd5b610081600480360381019061007c91906107c4565b61012b565b005b61008b6102ca565b6040516100989190610a11565b60405180910390f35b6100a96104a3565b6040516100b69190610a7d565b60405180910390f35b6100c7610531565b6040516100d49190610ab8565b60405180910390f35b6100f760048036038101906100f29190610ad3565b61053e565b005b610113600480360381019061010e9190610b4c565b61058d565b60405161012293929190610b88565b60405180910390f35b600160405180606001604052808773ffffffffffffffffffffffffffffffffffffffff16815260200186868080601f016020809104026020016040519081016040528093929190818152602001838380828437600081840152601f19601f82011690508083019250505050505050815260200184848080601f016020809104026020016040519081016040528093929190818152602001838380828437600081840152601f19601f82011690508083019250505050505050815250908060018154018082558091505060019003906000526020600020906003020160009091909190915060008201518160000160006101000a81548173ffffffffffffffffffffffffffffffffffffffff021916908373ffffffffffffffffffffffffffffffffffffffff160217905550602082015181600101908161026b9190610e08565b5060408201518160020190816102819190610e08565b5050507f66acd2c9d3f900fae2a27e58479b35c5baaa9536fa673ee350f88505edb047b385858585856040516102bb959493929190610f16565b60405180910390a15050505050565b60606001805480602002602001604051908101604052809291908181526020016000905b8282101561049a57838290600052602060002090600302016040518060600160405290816000820160009054906101000a900473ffffffffffffffffffffffffffffffffffffffff1673ffffffffffffffffffffffffffffffffffffffff1673ffffffffffffffffffffffffffffffffffffffff16815260200160018201805461037790610c2b565b80601f01602080910402602001604051908101604052809291908181526020018280546103a390610c2b565b80156103f05780601f106103c5576101008083540402835291602001916103f0565b820191906000526020600020905b8154815290600101906020018083116103d357829003601f168201915b5050505050815260200160028201805461040990610c2b565b80601f016020809104026020016040519081016040528092919081815260200182805461043590610c2b565b80156104825780601f1061045757610100808354040283529160200191610482565b820191906000526020600020905b81548152906001019060200180831161046557829003601f168201915b505050505081525050815260200190600101906102ee565b50505050905090565b600080546104b090610c2b565b80601f01602080910402602001604051908101604052809291908181526020018280546104dc90610c2b565b80156105295780601f106104fe57610100808354040283529160200191610529565b820191906000526020600020905b81548152906001019060200180831161050c57829003601f168201915b505050505081565b6000600180549050905090565b81816000918261054f929190610f6a565b507f3d1db61ee0f8c4e04c034995a754660363396002e2da1ee2faf31d2d76c41e52828260405161058192919061103a565b60405180910390a15050565b6001818154811061059d57600080fd5b90600052602060002090600302016000915090508060000160009054906101000a900473ffffffffffffffffffffffffffffffffffffffff16908060010180546105e690610c2b565b80601f016020809104026020016040519081016040528092919081815260200182805461061290610c2b565b801561065f5780601f106106345761010080835404028352916020019161065f565b820191906000526020600020905b81548152906001019060200180831161064257829003601f168201915b50505050509080600201805461067490610c2b565b80601f01602080910402602001604051908101604052809291908181526020018280546106a090610c2b565b80156106ed5780601f106106c2576101008083540402835291602001916106ed565b820191906000526020600020905b8154815290600101906020018083116106d057829003601f168201915b5050505050905083565b600080fd5b600080fd5b600073ffffffffffffffffffffffffffffffffffffffff82169050919050565b600061072c82610701565b9050919050565b61073c81610721565b811461074757600080fd5b50565b60008135905061075981610733565b92915050565b600080fd5b600080fd5b600080fd5b60008083601f8401126107845761078361075f565b5b8235905067ffffffffffffffff8111156107a1576107a0610764565b5b6020830191508360018202830111156107bd576107bc610769565b5b9250929050565b6000806000806000606086880312156107e0576107df6106f7565b5b60006107ee8882890161074a565b955050602086013567ffffffffffffffff81111561080f5761080e6106fc565b5b61081b8882890161076e565b9450945050604086013567ffffffffffffffff81111561083e5761083d6106fc565b5b61084a8882890161076e565b92509250509295509295909350565b600081519050919050565b600082825260208201905092915050565b6000819050602082019050919050565b61088e81610721565b82525050565b600081519050919050565b600082825260208201905092915050565b60005b838110156108ce5780820151818401526020810190506108b3565b60008484015250505050565b6000601f19601f8301169050919050565b60006108f682610894565b610900818561089f565b93506109108185602086016108b0565b610919816108da565b840191505092915050565b600060608301600083015161093c6000860182610885565b506020830151848203602086015261095482826108eb565b9150506040830151848203604086015261096e82826108eb565b9150508091505092915050565b60006109878383610924565b905092915050565b6000602082019050919050565b60006109a782610859565b6109b18185610864565b9350836020820285016109c385610875565b8060005b858110156109ff57848403895281516109e0858261097b565b94506109eb8361098f565b925060208a019950506001810190506109c7565b50829750879550505050505092915050565b60006020820190508181036000830152610a2b818461099c565b905092915050565b600082825260208201905092915050565b6000610a4f82610894565b610a598185610a33565b9350610a698185602086016108b0565b610a72816108da565b840191505092915050565b60006020820190508181036000830152610a978184610a44565b905092915050565b6000819050919050565b610ab281610a9f565b82525050565b6000602082019050610acd6000830184610aa9565b92915050565b60008060208385031215610aea57610ae96106f7565b5b600083013567ffffffffffffffff811115610b0857610b076106fc565b5b610b148582860161076e565b92509250509250929050565b610b2981610a9f565b8114610b3457600080fd5b50565b600081359050610b4681610b20565b92915050565b600060208284031215610b6257610b616106f7565b5b6000610b7084828501610b37565b91505092915050565b610b8281610721565b82525050565b6000606082019050610b9d6000830186610b79565b8181036020830152610baf8185610a44565b90508181036040830152610bc38184610a44565b9050949350505050565b7f4e487b7100000000000000000000000000000000000000000000000000000000600052604160045260246000fd5b7f4e487b7100000000000000000000000000000000000000000000000000000000600052602260045260246000fd5b60006002820490506001821680610c4357607f821691505b602082108103610c5657610c55610bfc565b5b50919050565b60008190508160005260206000209050919050565b60006020601f8301049050919050565b600082821b905092915050565b600060088302610cbe7fffffffffffffffffffffffffffffffffffffffffffffffffffffffffffffffff82610c81565b610cc88683610c81565b95508019841693508086168417925050509392505050565b6000819050919050565b6000610d05610d00610cfb84610a9f565b610ce0565b610a9f565b9050919050565b6000819050919050565b610d1f83610cea565b610d33610d2b82610d0c565b848454610c8e565b825550505050565b600090565b610d48610d3b565b610d53818484610d16565b505050565b5b81811015610d7757610d6c600082610d40565b600181019050610d59565b5050565b601f821115610dbc57610d8d81610c5c565b610d9684610c71565b81016020851015610da5578190505b610db9610db185610c71565b830182610d58565b50505b505050565b600082821c905092915050565b6000610ddf60001984600802610dc1565b1980831691505092915050565b6000610df88383610dce565b9150826002028217905092915050565b610e1182610894565b67ffffffffffffffff811115610e2a57610e29610bcd565b5b610e348254610c2b565b610e3f828285610d7b565b600060209050601f831160018114610e725760008415610e60578287015190505b610e6a8582610dec565b865550610ed2565b601f198416610e8086610c5c565b60005b82811015610ea857848901518255600182019150602085019450602081019050610e83565b86831015610ec55784890151610ec1601f891682610dce565b8355505b6001600288020188555050505b505050505050565b82818337600083830152505050565b6000610ef58385610a33565b9350610f02838584610eda565b610f0b836108da565b840190509392505050565b6000606082019050610f2b6000830188610b79565b8181036020830152610f3e818688610ee9565b90508181036040830152610f53818486610ee9565b90509695505050505050565b600082905092915050565b610f748383610f5f565b67ffffffffffffffff811115610f8d57610f8c610bcd565b5b610f978254610c2b565b610fa2828285610d7b565b6000601f831160018114610fd15760008415610fbf578287013590505b610fc98582610dec565b865550611031565b601f198416610fdf86610c5c565b60005b8281101561100757848901358255600182019150602085019450602081019050610fe2565b868310156110245784890135611020601f891682610dce565b8355505b6001600288020188555050505b50505050505050565b60006020820190508181036000830152611055818486610ee9565b9050939250505056fea264697066735822122063755a9c1bee3c8e2a13f4b26b66277e38ffbe9abc0b21be6ea409a2b9a9f2db64736f6c63430008130033",
  "linkReferences": {},
  "deployedLinkReferences": {}
}